:100000001EC036C009C334C033C032C031C030C096
:100010002FC02EC02DC02CC02BC02AC029C000006C
:1000200000010101020202030303040404040008A6
:10003000040C020A060E0109050D030B070F11241B
:100040001FBECFEDCDBF10E0A0E6B0E0E2EEF7E0DE
:1000500002C005900D92A436B107D9F720E0A4E6BE
:10006000B0E001C01D92A838B207E1F728D3B7C3AA
:10007000C7CFF89483E083BF80EF88BD2FE789EA7C
:1000800093E0215080409040E1F700C000008FEFE6
:1000900088BD81E083BF7894089583E38ABD81E0C1
:1000A00083BF8FEF88BD80B7856D80BF0895809135
:1000B000630090E001968295880F807E8DBD8DB59E
:1000C00080518EBD08958FE087BB80E188BB88B3E7
:1000D000806288BB089580E28BBF82E085BF80E1AB
:1000E00085BB789408958230D9F028F4882341F0B4
:1000F000813071F008958330D9F0843009F108958A
:1001000040E150E060E170E088E790E031D308958D
:1001100040E150E060E270E088E790E029D3089584
:1001200040E150E060E370E088E790E021D308957B
:1001300040E150E060E470E088E790E019D3089572
:1001400040E150E060E570E088E790E011D3089569
:1001500081111092670080937700E82FF0E0E85853
:10016000FF4F208180916600622F70E090E0EFD217
:10017000880F892F881F990B821B815088BD089595
:1001800080936300682F84E090E01BD390DF089594
:1001900081110AC080916E008F3F41F080916E0006
:1001A0008F5F80936E00089510926E00089588B35B
:1001B000837F88BB80916F0098B38C70892B88BB3C
:1001C000089585E280936E0080916F008095809302
:1001D0006F0060916F0080E090E0F3D2E8DF089557
:1001E00020916C0030E0281B3109233031052CF0C0
:1001F00086E080936D00DBDF089580916D00882399
:1002000029F080916D00815080936D000895809158
:100210006F00882341F080916D00811104C098B374
:1002200084E0892788BB089580917200882371F04B
:100230008091700080936100109272006091610063
:1002400081E090E0BED2809161004DDF1092740099
:100250000895CF93DF93D82FC62F80917300882302
:1002600099F080917700809371001092770010923E
:100270007300109274006091710082E090E0A1D24E
:1002800086E07EDFF6DE50C0809172008823B9F0F0
:10029000F0DE809170008F5F80937000809170001D
:1002A000843009F041C02FE788E391E0215080407D
:1002B0009040E1F700C00000DCDEB6DF35C0623000
:1002C00098F18091770081112FC08091740088236C
:1002D00059F1CFDEC23091F480916700811106C0E0
:1002E00081E0809367008D2F4BDF1EC01092670066
:1002F000D093630081E08093730016C0C33041F453
:1003000081E08093720010927000109267000CC020
:10031000C43041F4D093630081E080937300109265
:10032000670002C010927400DF91CF910895909100
:100330006A00911142C09091740091113EC06623F1
:1003400091F090916000981338C010926B008091EA
:10035000680091E0980F90936800843070F18FEFFF
:100360008093600008951092680090916B00911145
:1003700024C090916000891720F48093600010924F
:10038000690090916000891318C0809177008111F5
:1003900014C081E080936B00809169008F5F80932F
:1003A0006900823050F061E083E090E00AD261DEC3
:1003B00081E080936A0010926B000895662301F13A
:1003C0009091620098132AC090917500911105C018
:1003D000909176009F5F909376009091750021E058
:1003E000290F209375009430C8F09FEF909362001E
:1003F00090917600992391F0609176002ADF08951C
:1004000090916200891720F4809362001092760028
:1004100090916200891302C01092750008950F93A5
:100420001F93CF93DF93EC01FC01EF70FF27E25D98
:10043000FF4F849186959E01369527953695279591
:1004400036952795022F0F71ED2FFF27EF70FF27AD
:10045000E25DFF4F14919091630089131FC080915A
:10046000640090916500C817D90791F4011110C07C
:1004700000DEE12FF0E0E25EFF4FE491E0936100E7
:100480006091610081E090E08AD1809161002BDE73
:10049000043021F4E12FE770E0936600D09365000B
:1004A000C0936400DF91CF911F910F9108951F9326
:1004B000CF93DF93382F3E7F232F22952F70232752
:1004C000322F369536952327322F36952327422F04
:1004D000417050E09C01217033274217530749F1C6
:1004E000EC011C2F1F7709F09FDE809163008F7055
:1004F0009E0102C0220F331F8A95E2F7C901807462
:1005000090916300963051F480917700811111C071
:10051000112379F0809171001BDE0BC0882339F024
:1005200080917700811105C081E012DE02C080E079
:100530000FDEDF91CF911F9108951F93CF93DF932B
:100540009C010024220F331F001C220F331F001CAC
:10055000232F302DD22FD7709C0136952795122F3F
:100560001F7096958795929582958F7089279F70B9
:100570008927C82FC1706C2F8D2FD9DE8091630021
:10058000D81313C0812FE4DD812F02DE812F28DEF6
:10059000C11109C080916E00893228F080917400E9
:1005A000811101C00EDE10936C006C2F8D2F06DFC1
:1005B000DF91CF911F910895CF93DF93EC0127DE58
:1005C000CE01892F992782958F70019719F4CE015A
:1005D00026DF1FC0CE01892F99278695019779F4D0
:1005E000CE010024880F991F001C880F991F001C42
:1005F000892F902D0F9769F0CE019FDF0AC0CE01A1
:10060000880F892F881F990B9195019711F4CE01BE
:100610004EDFDF91CF9108951F920F920FB60F9288
:1006200011242F933F934F935F936F937F938F93F7
:100630009F93AF93BF93EF93FF9322B782B7821B31
:100640008C3CE0F3245360E070E080E041E020C0A7
:10065000660F771F642B92B7921B9C3CE0F33CEC37
:10066000320F92B7931B9C3CE0F338E9320F46B34C
:100670004295417092B7931B9C3CE0F334E6320FF5
:1006800092B7931B9C3CE0F3205D86B3829581700A
:100690004813DECFCB0190DF80E28ABFFF91EF915C
:1006A000BF91AF919F918F917F916F915F914F918A
:1006B0003F912F910F900FBE0F901F9018958FE7CD
:1006C00090E065D081BF84E090E061D080936300CA
:1006D00082E090E05CD08093710081E090E057D0A0
:1006E0008093610080916100853018F084E08093F0
:1006F000610080916100F7DC83E090E048D0809356
:10070000740080917400882351F0809174008230CD
:1007100010F01092740060E083E090E052D080E02E
:1007200090E035D080936F0080B5816080BD80B54A
:10073000826080BDC8DCB1DCBADC39DDCCDC85B7D9
:10074000877E85BF85B7806285BF8895FBCF0024F3
:10075000552704C0080E591F880F991F009729F0CC
:1007600076956795B8F37105B9F7802D952F0895A3
:10077000A82F862FE82FE199FECF1FBA05C0EEBB48
:10078000E09AE3950DB20D924150C8F70895E199B2
:10079000FECF1FBA8EBBE09A99278DB30895262FFE
:1007A000E199FECF1FBA8EBBE09A81500DB20216BE
:1007B00039F01CBA2DBB0FB6F894E29AE19A0FBE3D
:1007C0000895262FE199FECF1CBA1FBA8EBB2DBB10
:1007D0000FB6F894E29AE19A0FBE01960895F89444
:0207E000FFCF49
:0407E200FF04FFFF12
:00000001FF
